:0400000007EF00F016
:10000800598291ED06F095EF07F0146EF29E55C0F7
:1000180001F056C002F0000E046EC80E036EDDEC4F
:1000280007F0090E0126000E0222C40E0124D96E23
:10003800000E0220DA6EE8CFDFFF55C001F056C08F
:1000480002F0000E046EC80E036EDDEC07F00B0E16
:100058000126000E0222C40E0124D96E000E0220D1
:10006800DA6EE0CFDFFF55C001F056C002F0000E97
:10007800046EC80E036EDDEC07F00A0E0126000EB2
:100088000222C40E0124D96E000E0220DA6ED8CFE7
:10009800DFFF55C001F056C002F0000E046EC80E16
:1000A800036EDDEC07F0C60E0126000E0222C40E18
:1000B8000124D96E000E0220DA6EDECF15F0DDCFF6
:1000C80016F0100E0D6EFDCF0EF0FECF0FF0FFCF25
:1000D80010F00D28116E04D0D89010320F320E3265
:1000E800112EFAD755C001F056C002F0000E046E6A
:1000F800C80E036EDDEC07F0090E0126000E022281
:10010800C40E126E000E136E0150122602501322F6
:1001180015C001F016C002F0000E046E060E036E44
:10012800DDEC07F0030E0126000E02220150122416
:10013800D96E02501320DA6E0EC0DEFF0FC0DDFF4D
:10014800FDCF0DF0FECF0EF0FFCF0FF00EC00DF07B
:100158000FC00EF00F6A55C001F056C002F0000E35
:10016800046EC80E036EDDEC07F0090E0126000EC2
:100178000222C40E106E000E116E0150102602509D
:10018800112215C001F016C002F0000E046E060E12
:10019800036EDDEC07F0030E0126000E022201506B
:1001A800102602501122020E1024D96E000E1120C2
:1001B800DA6E0DC0DEFF0EC0DDFF55C001F056C07F
:1001C80002F0000E046EC80E036EDDEC07F0090E97
:1001D8000126000E0222C40E0D6E000E0E6E015096
:1001E8000D2602500E2215C001F016C002F0000EB6
:1001F800046E060E036EDDEC07F0030E0126000EFA
:10020800022201500D2602500E22040E0D24D96E32
:10021800000E0E20DA6EFDCFDEFFFECFDDFF55C0EB
:1002280001F056C002F0000E046EC80E036EDDEC3D
:1002380007F0C60E0126000E0222C40E0124D96E54
:10024800000E0220DA6EDE2A000EDD220600FC50C7
:10025800D8A41FD755C001F056C002F0000E046E96
:10026800C80E036EDDEC07F0020E0126000E022216
:10027800C40E0124D96E000E0220DA6E14C0DFFF0E
:100288000EEC07F007C055F008C056F055C001F055
:1002980056C002F0000E046EC80E036EDDEC07F0C7
:1002A800020E0126000E0222C40E0124D96E000E91
:1002B8000220DA6E010EDF6E55C001F056C002F062
:1002C800000E046EC80E036EDDEC07F0090E012661
:1002D800000E0222C40E0124D96E000E0220DA6E2E
:1002E800DF500D6E0D5055C001F056C002F0000EE3
:1002F800046EC80E036EDDEC07F00B0E0126000E2F
:100308000222C40E0124D96E000E0220DA6EDF50DC
:10031800E06E55C001F056C002F0000E046EC80E23
:10032800036EDDEC07F00A0E0126000E0222C40E51
:100338000124D96E000E0220DA6EDF50D86E000E4E
:10034800FC6E55C001F056C002F0000E046EC80ED7
:10035800036EDDEC07F0C60E0126000E0222C40E65
:100368000124D96E000E0220DA6EDE06000EDD5A78
:10037800DECF17F0DDCF18F0050055C001F056C0EC
:1003880002F0000E046EC80E036EDDEC07F0090ED5
:100398000126000E0222C40E0D6E000E0E6E0150D4
:1003A8000D2602500E2217C001F018C002F0000EF0
:1003B800046E060E036EDDEC07F0030E0126000E38
:1003C800022201500D24D96E02500E20DA6EDF5041
:1003D800FF6E55C001F056C002F0000E046EC80E44
:1003E800036EDDEC07F0090E0126000E0222C40E92
:1003F8000D6E000E0E6E01500D2602500E2217C013
:1004080001F018C002F0000E046E060E036EDDEC5B
:1004180007F0030E0126000E022201500D2602509D
:100428000E22020E0D24D96E000E0E20DA6EDF5059
:10043800FE6E55C001F056C002F0000E046EC80EE4
:10044800036EDDEC07F0090E0126000E0222C40E31
:100458000D6E000E0E6E01500D2602500E2217C0B2
:1004680001F018C002F0000E046E060E036EDDECFB
:1004780007F0030E0126000E022201500D2602503D
:100488000E22040E0D24D96E000E0E20DA6EDF50F7
:10049800FD6E55C001F056C002F0000E046EC80E85
:1004A800036EDDEC07F0C60E0126000E0222C40E14
:1004B8000124D96E000E0220DA6EDE50DE10D8A4B8
:1004C80040D7F28E120053C001F054C002F0000E63
:1004D800046EC80E036ECAEC07F0C40E0124D96E70
:1004E800000E0220DA6E07C0DEFF08C0DDFF53C031
:1004F80001F054C002F0000E046EC80E036ECAEC80
:1005080007F0020E0126000E0222C40E0124D96E45
:10051800000E0220DA6E000EDF6E53C001F054C0E8
:1005280002F0000E046EC80E036ECAEC07F0030E4C
:100538000126000E0222C40E0124D96E000E0220EC
:10054800DA6E09C0DEFF0AC0DDFF53C001F054C0F7
:1005580002F0000E046EC80E036ECAEC07F0050E1A
:100568000126000E0222C40E0124D96E000E0220BC
:10057800DA6E09C0DEFF0AC0DDFF53C001F054C0C7
:1005880002F0000E046EC80E036ECAEC07F0070EE8
:100598000126000E0222C40E0124D96E000E02208C
:1005A800DA6E0BC0DEFF0CC0DDFF0B500D6E0C5079
:1005B8000E6E0F6A106A110E05D0D89010320F32E5
:1005C8000E320D32E82EF9D753C001F054C002F0B4
:1005D800000E046EC80E036ECAEC07F00C0E01265E
:1005E800000E0222C40E0124D96E000E0220DA6E1B
:1005F8000DC0DEFF0EC0DDFF0B500D6E0C500E6EF1
:100608000F6A106A0EC00DF00FC00EF010C00FF088
:10061800106A53C001F054C002F0000E046EC80EF8
:10062800036ECAEC07F00E0E0126000E0222C40E5D
:100638000124D96E000E0220DA6E0DC0DEFF0EC056
:10064800DDFF53C001F054C002F0000E046EC80E66
:10065800036ECAEC07F0100E0126000E0222C40E2B
:100668000124D96E000E0220DA6E0BC0DEFF0CC02A
:10067800DDFF53C001F054C002F0000E046EC80E36
:10068800036ECAEC07F0C60E0126000E0222C40E45
:100698000124D96E000E0220DA6E010EDE6E000E05
:1006A800DD6E534A542A1200010EC26E0E0EC16E40
:1006B800040EC06E000E0001A36F000EA26F000EA4
:1006C8000001A76F000EA66F9280C282C2B2FED749
:1006D800C4CFA0F00001A16B000E0001836FFA0ED9
:1006E8000001846F430E0001856F000E356E7F0E8A
:1006F800366E430E376EA0C02FF0A1C030F0F0EC7C
:1007080007F02FC032F030C033F031C034F05CEC69
:1007180005F032C080F033C081F034C082F00BECB9
:1007280004F080C08FF081C090F082C091F0BAECE4
:1007380004F08FC0A4F090C0A5F00A0E0001A6191D
:100748000001A711D8A405D0000E0001A76F000E64
:10075800A66F0001A6510001A711D8A421D0D890F6
:100768000001A635D96E0001A735DA6EAE0ED9267E
:10077800000EDA22A4C0DEFFA5C0DDFFA6C09EF0F1
:10078800A7C09FF0D89000019E379F37AE0E00019A
:100798009E250001AC6F000E00019F210001AD6F86
:1007A8000001A4510001A21906E10001A5510001B0
:1007B800A319D8B428D00001A64BA72BD8900001C4
:1007C800A635D96E0001A735DA6EAE0ED926000E11
:1007D800DA22A4C0DEFFA5C0DDFFA6C09EF0A7C038
:1007E8009FF0D89000019E379F37AE0E00019E25DE
:1007F8000001AC6F000E00019F210001AD6FA4C085
:10080800A2F0A5C0A3F000F000F000F05ED782C00F
:1008180086F00001876B886B0001813500018637FF
:1008280001E38781000186510001896F0001895128
:10083800D8A40AD0000E0001806F000E0001816F5D
:10084800000E0001826F120085C086F00001876BE0
:10085800886B000184350001863701E38781000138
:10086800865100018E6F00018E51D8A40AD0000E67
:100878000001806F000E0001816F000E0001826F81
:10088800120000018E517B0F0001892782C08EF073
:100898000001855100018E1B800E00018E1700019A
:1008A800818F0001848FFF0E00018317FF0E000166
:1008B8008417000E00018517000E00018A6F000ED4
:1008C80000018B6F000E00018C6F070E00018D6F09
:1008D800000180A10CD00001835100018A2700018A
:1008E800845100018B230001855100018C230001F4
:1008F800D8908233813380330001D890833784378E
:10090800853700018D2FE4D7090E00018D6F000196
:1009180080A10CD00001835100018A270001845175
:1009280000018B230001855100018C230001D89020
:100938008233813380330001D8908C338B338A33F0
:1009480000018D2FE4D78AC027F08BC028F08CC017
:1009580029F089C02AF08EC02BF03AEC06F027C0A7
:1009680080F028C081F029C082F0120091C093F075
:100978000001946B956B000190350001933701E3FA
:1009880094810001935100019D6F00019D51D8A4ED
:100998000AD0000E00018F6F000E906F000E916F4D
:1009A800000E926F1200170E0001936F8FC094F023
:1009B80090C095F091C096F0000193290001976FBF
:1009C80005D00001D8909633953394330001972FC2
:1009D800F8D7000194510001986F0001908FFF0E25
:1009E80000018F17FF0E00019017000E00019117EC
:1009F80000018F510001996F0001905100019A6F19
:100A08000001915100019B6F00019C6B8E0E00014B
:100A18009D5F00019DAF1AD000019D51800A8F0F84
:100A2800D8B00AD0000E00018F6F000E906F000E34
:100A3800916F000E926F12000001D8909C339B3387
:100A48009A33993300019D3FF7D71BD0170E000149
:100A58009D6512D0000E00018F6F000E906F000E82
:100A6800916F000E926F12000001D89099379A3753
:100A78009B379C3700019D0700019D510001D8A4B8
:100A8800F3D7000198510001D8B409D000019C1F88
:100A98009B1F9A1F996D000E9A239B239C2399C034
:100AA8008FF09AC090F09BC091F09CC092F0120019
:100AB80034C038F0396A3A6A3334383601E3398059
:100AC80038503F6E3F50D8A407D0000E326E000E4B
:100AD800336E000E346E120037C038F0396A3A6A45
:100AE8003634383601E339803850406E4050D8A447
:100AF80007D0000E326E000E336E000E346E1200F8
:100B0800000E3C6E000E3D6E000E3E6E4050890F8A
:100B18003F5E34C040F03750401A800E4016338E86
:100B2800FF0E3216FF0E3316000E3416368EFF0EE9
:100B38003516FF0E3616000E3716180E3B6ED89077
:100B48003C363D363E363550325C36503358375099
:100B58003458D8A007D03550325E3650335A375003
:100B6800345A3C80D8903236333634363B2EE7D769
:100B78003CC027F03DC028F03EC029F03FC02AF015
:100B880040C02BF03AEC06F027C032F028C033F012
:100B980029C034F01200939081909392819293949B
:100BA80081948190819281940CD0818081928194EA
:100BB800000E0001C56F640EC46FC40E576E000EA0
:100BC800586EACC0D9FFADC0DAFF010EDB5004E1AE
:100BD8001F0EDE5CD8A018D0ACC0D9FFADC0DAFFBC
:100BE800010EDB5011E1290EDE5CD8B00DD0DDD747
:100BF800819081828194000E0001C56F320EC46F0E
:100C0800C40E576E000E586EACC0D9FFADC0DAFFE7
:100C1800010EDB5004E1280EDE5CD8A018D0ACC071
:100C2800D9FFADC0DAFF010EDB5011E1330EDE5CF7
:100C3800D8B00DD0DDD7819081928184000E00015B
:100C4800C56F000EC46FC40E576E000E586EACC050
:100C5800D9FFADC0DAFF010EDB50EDE1320EDE5CEC
:100C6800D8B0E9D700F000F000F09BD72A50D8B4EC
:100C780005D0275028102910D8A40CD0000E276EB4
:100C8800000E286E000E296E12002A2AD8902932EA
:100C980028322732000E27142C6E000E28142D6ED1
:100CA800FE0E29142E6E2C502D102E10D8B40CD0F8
:100CB800ECD72A2A010E2726000E2822000E292208
:100CC800D890293228322732000E27142C6E000EB5
:100CD80028142D6EFF0E29142E6E2C502D102E1058
:100CE800D8B406D0E6D72A06D8902736283629362B
:100CF80028BE03D0020E2A60F6D72AA0289ED890D4
:100D08002A322A5029122B50D8A4298E27C027F01E
:100D180028C028F029C029F012000600FACF19F0DF
:100D2800FBCF1AF0E9CF1BF0EACF1CF0E1CF1DF0A2
:100D3800E2CF1EF0D9CF1FF0DACF20F0F3CF21F0A9
:100D4800F4CF22F0F6CF23F0F7CF24F0F8CF25F038
:100D5800F5CF26F0F2BAF2A408D0F294E70ED76ED7
:100D6800960ED66E000E09EC00F026C0F5FF25C0E1
:100D7800F8FF24C0F7FF23C0F6FF22C0F4FF21C00C
:100D8800F3FF20C0DAFF1FC0D9FF1EC0E2FF1DC05D
:100D9800E1FF1CC0EAFF1BC0E9FF1AC0FBFF19C036
:100DA800FAFF5992110094948294BD50F00B0C09EB
:100DB800BD6E9B0ECB6ECA50FC0B0209CA6ECA846C
:100DC80009D0828457C0D9FF58C0DAFFDECFBEFFF2
:100DD800DDCFBFFFACC0D9FFADC0DAFF010EDB50DD
:100DE800F0E11F0EDE5CD8A006D0EBD78294000E8F
:100DF800BF6E9B0EBE6EACC0D9FFADC0DAFF010E50
:100E0800DB5004E11F0EDE5CD8A0F0D700F000F044
:100E180000F0E0D755C009F056C00AF0000E0C6E7D
:100E2800000E0B6E094A0A2A09C001F00AC002F036
:100E380053C003F054C004F074EC07F001C00BF089
:100E480002C00CF00BC001F00CC002F0000E046EE2
:100E5800C80E036EDDEC07F0020E0126000E02221A
:100E6800C40E0124D96E000E0220DA6EDF50D8A419
:100E7800D9D70BC007F00CC008F01200B0EC07F08F
:100E8800000E086E010E076E000E0A6E640E096EE3
:100E9800B00E0B6E060E0C6E67EC02F0000E086EBC
:100EA800020E076E000E0A6E640E096E9E0E0B6E21
:100EB8000B0E0C6E67EC02F0000E086E030E076E48
:100EC800000E0A6E640E096EAE0E0B6E0D0E0C6EE1
:100ED80067EC02F0D58EE70ED76E960ED66EFFD76A
:100EE80003500410D8B418D0010E056E04D0D89061
:100EF80003360436052A04AEFAD70350015C0450C1
:100F08000258D8A004D00350015E0450025AD89069
:100F180004320332052EF1D701C001F002C002F0FD
:100F2800120000EEC4F015EE20F0EE6AE550E15034
:100F3800FCE1E250FAE100EEACF0180EEE6AE806C9
:100F4800FDE100EE41F0180EEE6AE806FDE1599069
:100F58005992000142EF07F0000E086E000E076E6E
:100F6800000E0A6E000E096E040E0B6E100E0C6E4B
:100F780067EC02F0D59AD59CD596D550F80B0209A6
:100F8800D56EF28AF294F28CF28E120001500302AE
:100F9800F3CF05F0F4CF06F001500402F350062613
:100FA80002500302F350062605C001F006C002F005
:100FB800120001500302F3CF05F0F4CF06F0015000
:100FC8000402F350062602500302F350062605C019
:100FD80001F006C002F012002FC027F030C028F040
:100FE800296A8E0E2A6E000E2B6E3AEC06F027C088
:100FF8002FF028C030F029C031F0120000F000F0C6
:0410080000F01200E2
:020000040020DA
:08000000FFFFFFFFFFFFFFFF00
:020000040030CA
:0E000000FF021F1EFF8385FF0FC00FE00F40A1
:00000001FF
